{
  "_format": "hh-sol-artifact-1",
  "contractName": "Gravity",
  "sourceName": "contracts/Gravity.sol",
  "abi": [
    {
      "inputs": [
        {
          "internalType": "bytes32",
          "name": "_gravityId",
          "type": "bytes32"
        },
        {
          "internalType": "address[]",
          "name": "_validators",
          "type": "address[]"
        },
        {
          "internalType": "uint256[]",
          "name": "_powers",
          "type": "uint256[]"
        },
        {
          "internalType": "address",
          "name": "_wNomAddress",
          "type": "address"
        }
      ],
      "stateMutability": "nonpayable",
      "type": "constructor"
    },
    {
      "inputs": [],
      "name": "BatchTimedOut",
      "type": "error"
    },
    {
      "inputs": [],
      "name": "IncorrectCheckpoint",
      "type": "error"
    },
    {
      "inputs": [
        {
          "internalType": "uint256",
          "name": "cumulativePower",
          "type": "uint256"
        },
        {
          "internalType": "uint256",
          "name": "powerThreshold",
          "type": "uint256"
        }
      ],
      "name": "InsufficientPower",
      "type": "error"
    },
    {
      "inputs": [
        {
          "internalType": "uint256",
          "name": "newNonce",
          "type": "uint256"
        },
        {
          "internalType": "uint256",
          "name": "currentNonce",
          "type": "uint256"
        }
      ],
      "name": "InvalidBatchNonce",
      "type": "error"
    },
    {
      "inputs": [],
      "name": "InvalidLogicCallFees",
      "type": "error"
    },
    {
      "inputs": [
        {
          "internalType": "uint256",
          "name": "newNonce",
          "type": "uint256"
        },
        {
          "internalType": "uint256",
          "name": "currentNonce",
          "type": "uint256"
        }
      ],
      "name": "InvalidLogicCallNonce",
      "type": "error"
    },
    {
      "inputs": [],
      "name": "InvalidLogicCallTransfers",
      "type": "error"
    },
    {
      "inputs": [],
      "name": "InvalidSendToCosmos",
      "type": "error"
    },
    {
      "inputs": [],
      "name": "InvalidSignature",
      "type": "error"
    },
    {
      "inputs": [
        {
          "internalType": "uint256",
          "name": "newNonce",
          "type": "uint256"
        },
        {
          "internalType": "uint256",
          "name": "currentNonce",
          "type": "uint256"
        }
      ],
      "name": "InvalidValsetNonce",
      "type": "error"
    },
    {
      "inputs": [],
      "name": "LogicCallTimedOut",
      "type": "error"
    },
    {
      "inputs": [],
      "name": "MalformedBatch",
      "type": "error"
    },
    {
      "inputs": [],
      "name": "MalformedCurrentValidatorSet",
      "type": "error"
    },
    {
      "inputs": [],
      "name": "MalformedNewValidatorSet",
      "type": "error"
    },
    {
      "anonymous": false,
      "inputs": [
        {
          "indexed": false,
          "internalType": "string",
          "name": "_cosmosDenom",
          "type": "string"
        },
        {
          "indexed": true,
          "internalType": "address",
          "name": "_tokenContract",
          "type": "address"
        },
        {
          "indexed": false,
          "internalType": "string",
          "name": "_name",
          "type": "string"
        },
        {
          "indexed": false,
          "internalType": "string",
          "name": "_symbol",
          "type": "string"
        },
        {
          "indexed": false,
          "internalType": "uint8",
          "name": "_decimals",
          "type": "uint8"
        },
        {
          "indexed": false,
          "internalType": "uint256",
          "name": "_eventNonce",
          "type": "uint256"
        }
      ],
      "name": "ERC20DeployedEvent",
      "type": "event"
    },
    {
      "anonymous": false,
      "inputs": [
        {
          "indexed": false,
          "internalType": "bytes32",
          "name": "_invalidationId",
          "type": "bytes32"
        },
        {
          "indexed": false,
          "internalType": "uint256",
          "name": "_invalidationNonce",
          "type": "uint256"
        },
        {
          "indexed": false,
          "internalType": "bytes",
          "name": "_returnData",
          "type": "bytes"
        },
        {
          "indexed": false,
          "internalType": "uint256",
          "name": "_eventNonce",
          "type": "uint256"
        }
      ],
      "name": "LogicCallEvent",
      "type": "event"
    },
    {
      "anonymous": false,
      "inputs": [
        {
          "indexed": true,
          "internalType": "address",
          "name": "_tokenContract",
          "type": "address"
        },
        {
          "indexed": true,
          "internalType": "address",
          "name": "_sender",
          "type": "address"
        },
        {
          "indexed": false,
          "internalType": "string",
          "name": "_destination",
          "type": "string"
        },
        {
          "indexed": false,
          "internalType": "uint256",
          "name": "_amount",
          "type": "uint256"
        },
        {
          "indexed": false,
          "internalType": "uint256",
          "name": "_eventNonce",
          "type": "uint256"
        }
      ],
      "name": "SendToCosmosEvent",
      "type": "event"
    },
    {
      "anonymous": false,
      "inputs": [
        {
          "indexed": true,
          "internalType": "uint256",
          "name": "_batchNonce",
          "type": "uint256"
        },
        {
          "indexed": true,
          "internalType": "address",
          "name": "_token",
          "type": "address"
        },
        {
          "indexed": false,
          "internalType": "uint256",
          "name": "_eventNonce",
          "type": "uint256"
        }
      ],
      "name": "TransactionBatchExecutedEvent",
      "type": "event"
    },
    {
      "anonymous": false,
      "inputs": [
        {
          "indexed": true,
          "internalType": "uint256",
          "name": "_newValsetNonce",
          "type": "uint256"
        },
        {
          "indexed": false,
          "internalType": "uint256",
          "name": "_eventNonce",
          "type": "uint256"
        },
        {
          "indexed": false,
          "internalType": "uint256",
          "name": "_rewardAmount",
          "type": "uint256"
        },
        {
          "indexed": false,
          "internalType": "address",
          "name": "_rewardToken",
          "type": "address"
        },
        {
          "indexed": false,
          "internalType": "address[]",
          "name": "_validators",
          "type": "address[]"
        },
        {
          "indexed": false,
          "internalType": "uint256[]",
          "name": "_powers",
          "type": "uint256[]"
        }
      ],
      "name": "ValsetUpdatedEvent",
      "type": "event"
    },
    {
      "inputs": [
        {
          "internalType": "string",
          "name": "_cosmosDenom",
          "type": "string"
        },
        {
          "internalType": "string",
          "name": "_name",
          "type": "string"
        },
        {
          "internalType": "string",
          "name": "_symbol",
          "type": "string"
        },
        {
          "internalType": "uint8",
          "name": "_decimals",
          "type": "uint8"
        }
      ],
      "name": "deployERC20",
      "outputs": [],
      "stateMutability": "nonpayable",
      "type": "function"
    },
    {
      "inputs": [
        {
          "internalType": "address",
          "name": "_erc20Address",
          "type": "address"
        }
      ],
      "name": "lastBatchNonce",
      "outputs": [
        {
          "internalType": "uint256",
          "name": "",
          "type": "uint256"
        }
      ],
      "stateMutability": "view",
      "type": "function"
    },
    {
      "inputs": [
        {
          "internalType": "bytes32",
          "name": "_invalidation_id",
          "type": "bytes32"
        }
      ],
      "name": "lastLogicCallNonce",
      "outputs": [
        {
          "internalType": "uint256",
          "name": "",
          "type": "uint256"
        }
      ],
      "stateMutability": "view",
      "type": "function"
    },
    {
      "inputs": [
        {
          "internalType": "address",
          "name": "_tokenContract",
          "type": "address"
        },
        {
          "internalType": "string",
          "name": "_destination",
          "type": "string"
        },
        {
          "internalType": "uint256",
          "name": "_amount",
          "type": "uint256"
        }
      ],
      "name": "sendToCosmos",
      "outputs": [],
      "stateMutability": "nonpayable",
      "type": "function"
    },
    {
      "inputs": [],
      "name": "state_gravityId",
      "outputs": [
        {
          "internalType": "bytes32",
          "name": "",
          "type": "bytes32"
        }
      ],
      "stateMutability": "view",
      "type": "function"
    },
    {
      "inputs": [
        {
          "internalType": "bytes32",
          "name": "",
          "type": "bytes32"
        }
      ],
      "name": "state_invalidationMapping",
      "outputs": [
        {
          "internalType": "uint256",
          "name": "",
          "type": "uint256"
        }
      ],
      "stateMutability": "view",
      "type": "function"
    },
    {
      "inputs": [
        {
          "internalType": "address",
          "name": "",
          "type": "address"
        }
      ],
      "name": "state_lastBatchNonces",
      "outputs": [
        {
          "internalType": "uint256",
          "name": "",
          "type": "uint256"
        }
      ],
      "stateMutability": "view",
      "type": "function"
    },
    {
      "inputs": [],
      "name": "state_lastEventNonce",
      "outputs": [
        {
          "internalType": "uint256",
          "name": "",
          "type": "uint256"
        }
      ],
      "stateMutability": "view",
      "type": "function"
    },
    {
      "inputs": [],
      "name": "state_lastValsetCheckpoint",
      "outputs": [
        {
          "internalType": "bytes32",
          "name": "",
          "type": "bytes32"
        }
      ],
      "stateMutability": "view",
      "type": "function"
    },
    {
      "inputs": [],
      "name": "state_lastValsetNonce",
      "outputs": [
        {
          "internalType": "uint256",
          "name": "",
          "type": "uint256"
        }
      ],
      "stateMutability": "view",
      "type": "function"
    },
    {
      "inputs": [
        {
          "components": [
            {
              "internalType": "address[]",
              "name": "validators",
              "type": "address[]"
            },
            {
              "internalType": "uint256[]",
              "name": "powers",
              "type": "uint256[]"
            },
            {
              "internalType": "uint256",
              "name": "valsetNonce",
              "type": "uint256"
            },
            {
              "internalType": "uint256",
              "name": "rewardAmount",
              "type": "uint256"
            },
            {
              "internalType": "address",
              "name": "rewardToken",
              "type": "address"
            }
          ],
          "internalType": "struct ValsetArgs",
          "name": "_currentValset",
          "type": "tuple"
        },
        {
          "components": [
            {
              "internalType": "uint8",
              "name": "v",
              "type": "uint8"
            },
            {
              "internalType": "bytes32",
              "name": "r",
              "type": "bytes32"
            },
            {
              "internalType": "bytes32",
              "name": "s",
              "type": "bytes32"
            }
          ],
          "internalType": "struct Signature[]",
          "name": "_sigs",
          "type": "tuple[]"
        },
        {
          "internalType": "uint256[]",
          "name": "_amounts",
          "type": "uint256[]"
        },
        {
          "internalType": "address[]",
          "name": "_destinations",
          "type": "address[]"
        },
        {
          "internalType": "uint256[]",
          "name": "_fees",
          "type": "uint256[]"
        },
        {
          "internalType": "uint256",
          "name": "_batchNonce",
          "type": "uint256"
        },
        {
          "internalType": "address",
          "name": "_tokenContract",
          "type": "address"
        },
        {
          "internalType": "uint256",
          "name": "_batchTimeout",
          "type": "uint256"
        }
      ],
      "name": "submitBatch",
      "outputs": [],
      "stateMutability": "nonpayable",
      "type": "function"
    },
    {
      "inputs": [
        {
          "components": [
            {
              "internalType": "address[]",
              "name": "validators",
              "type": "address[]"
            },
            {
              "internalType": "uint256[]",
              "name": "powers",
              "type": "uint256[]"
            },
            {
              "internalType": "uint256",
              "name": "valsetNonce",
              "type": "uint256"
            },
            {
              "internalType": "uint256",
              "name": "rewardAmount",
              "type": "uint256"
            },
            {
              "internalType": "address",
              "name": "rewardToken",
              "type": "address"
            }
          ],
          "internalType": "struct ValsetArgs",
          "name": "_currentValset",
          "type": "tuple"
        },
        {
          "components": [
            {
              "internalType": "uint8",
              "name": "v",
              "type": "uint8"
            },
            {
              "internalType": "bytes32",
              "name": "r",
              "type": "bytes32"
            },
            {
              "internalType": "bytes32",
              "name": "s",
              "type": "bytes32"
            }
          ],
          "internalType": "struct Signature[]",
          "name": "_sigs",
          "type": "tuple[]"
        },
        {
          "components": [
            {
              "internalType": "uint256[]",
              "name": "transferAmounts",
              "type": "uint256[]"
            },
            {
              "internalType": "address[]",
              "name": "transferTokenContracts",
              "type": "address[]"
            },
            {
              "internalType": "uint256[]",
              "name": "feeAmounts",
              "type": "uint256[]"
            },
            {
              "internalType": "address[]",
              "name": "feeTokenContracts",
              "type": "address[]"
            },
            {
              "internalType": "address",
              "name": "logicContractAddress",
              "type": "address"
            },
            {
              "internalType": "bytes",
              "name": "payload",
              "type": "bytes"
            },
            {
              "internalType": "uint256",
              "name": "timeOut",
              "type": "uint256"
            },
            {
              "internalType": "bytes32",
              "name": "invalidationId",
              "type": "bytes32"
            },
            {
              "internalType": "uint256",
              "name": "invalidationNonce",
              "type": "uint256"
            }
          ],
          "internalType": "struct LogicCallArgs",
          "name": "_args",
          "type": "tuple"
        }
      ],
      "name": "submitLogicCall",
      "outputs": [],
      "stateMutability": "nonpayable",
      "type": "function"
    },
    {
      "inputs": [
        {
          "components": [
            {
              "internalType": "address[]",
              "name": "validators",
              "type": "address[]"
            },
            {
              "internalType": "uint256[]",
              "name": "powers",
              "type": "uint256[]"
            },
            {
              "internalType": "uint256",
              "name": "valsetNonce",
              "type": "uint256"
            },
            {
              "internalType": "uint256",
              "name": "rewardAmount",
              "type": "uint256"
            },
            {
              "internalType": "address",
              "name": "rewardToken",
              "type": "address"
            }
          ],
          "internalType": "struct ValsetArgs",
          "name": "_currentValset",
          "type": "tuple"
        },
        {
          "components": [
            {
              "internalType": "uint8",
              "name": "v",
              "type": "uint8"
            },
            {
              "internalType": "bytes32",
              "name": "r",
              "type": "bytes32"
            },
            {
              "internalType": "bytes32",
              "name": "s",
              "type": "bytes32"
            }
          ],
          "internalType": "struct Signature[]",
          "name": "_sigs",
          "type": "tuple[]"
        },
        {
          "internalType": "bytes32",
          "name": "_theHash",
          "type": "bytes32"
        },
        {
          "internalType": "uint256",
          "name": "_powerThreshold",
          "type": "uint256"
        }
      ],
      "name": "testCheckValidatorSignatures",
      "outputs": [],
      "stateMutability": "pure",
      "type": "function"
    },
    {
      "inputs": [
        {
          "components": [
            {
              "internalType": "address[]",
              "name": "validators",
              "type": "address[]"
            },
            {
              "internalType": "uint256[]",
              "name": "powers",
              "type": "uint256[]"
            },
            {
              "internalType": "uint256",
              "name": "valsetNonce",
              "type": "uint256"
            },
            {
              "internalType": "uint256",
              "name": "rewardAmount",
              "type": "uint256"
            },
            {
              "internalType": "address",
              "name": "rewardToken",
              "type": "address"
            }
          ],
          "internalType": "struct ValsetArgs",
          "name": "_valsetArgs",
          "type": "tuple"
        },
        {
          "internalType": "bytes32",
          "name": "_gravityId",
          "type": "bytes32"
        }
      ],
      "name": "testMakeCheckpoint",
      "outputs": [],
      "stateMutability": "pure",
      "type": "function"
    },
    {
      "inputs": [
        {
          "components": [
            {
              "internalType": "address[]",
              "name": "validators",
              "type": "address[]"
            },
            {
              "internalType": "uint256[]",
              "name": "powers",
              "type": "uint256[]"
            },
            {
              "internalType": "uint256",
              "name": "valsetNonce",
              "type": "uint256"
            },
            {
              "internalType": "uint256",
              "name": "rewardAmount",
              "type": "uint256"
            },
            {
              "internalType": "address",
              "name": "rewardToken",
              "type": "address"
            }
          ],
          "internalType": "struct ValsetArgs",
          "name": "_newValset",
          "type": "tuple"
        },
        {
          "components": [
            {
              "internalType": "address[]",
              "name": "validators",
              "type": "address[]"
            },
            {
              "internalType": "uint256[]",
              "name": "powers",
              "type": "uint256[]"
            },
            {
              "internalType": "uint256",
              "name": "valsetNonce",
              "type": "uint256"
            },
            {
              "internalType": "uint256",
              "name": "rewardAmount",
              "type": "uint256"
            },
            {
              "internalType": "address",
              "name": "rewardToken",
              "type": "address"
            }
          ],
          "internalType": "struct ValsetArgs",
          "name": "_currentValset",
          "type": "tuple"
        },
        {
          "components": [
            {
              "internalType": "uint8",
              "name": "v",
              "type": "uint8"
            },
            {
              "internalType": "bytes32",
              "name": "r",
              "type": "bytes32"
            },
            {
              "internalType": "bytes32",
              "name": "s",
              "type": "bytes32"
            }
          ],
          "internalType": "struct Signature[]",
          "name": "_sigs",
          "type": "tuple[]"
        }
      ],
      "name": "updateValset",
      "outputs": [],
      "stateMutability": "nonpayable",
      "type": "function"
    },
    {
      "inputs": [],
      "name": "wNomAddress",
      "outputs": [
        {
          "internalType": "address",
          "name": "",
          "type": "address"
        }
      ],
      "stateMutability": "view",
      "type": "function"
    }
  ],
  "bytecode": "0x60a0604052600060065560016007553480156200001b57600080fd5b5060405162003bc338038062003bc38339810160408190526200003e9162000378565b6001600081905580546001600160a01b0383166001600160a01b03199182168117909255600280549091169091179055815183511415806200007f57508251155b156200009e5760405163c6617b7b60e01b815260040160405180910390fd5b6000805b83518110156200010057838181518110620000c157620000c162000466565b602002602001015182620000d6919062000492565b915063aaaaaaaa821115620000eb5762000100565b80620000f781620004ad565b915050620000a2565b5063aaaaaaaa8111620001365760405162bfb6ab60e01b81526004810182905263aaaaaaaa602482015260440160405180910390fd5b620001726040518060a001604052806060815260200160608152602001600081526020016000815260200160006001600160a01b031681525090565b506040805160a081018252858152602081018590526000918101829052606081018290526080810182905290620001aa82886200020d565b6080889052600381905560065460075460405192935090917f76d08978c024a4bf8cbb30c67fd78fcaa1827cbc533e4e175f36d07e64ccf96a91620001f89160009081908c908c9062000543565b60405180910390a250505050505050620005f2565b6000806918da1958dadc1bda5b9d60b21b60001b90506000838286604001518760000151886020015189606001518a6080015160405160200162000258979695949392919062000592565b60408051808303601f19018152919052805160209091012095945050505050565b634e487b7160e01b600052604160045260246000fd5b604051601f8201601f191681016001600160401b0381118282101715620002ba57620002ba62000279565b604052919050565b60006001600160401b03821115620002de57620002de62000279565b5060051b60200190565b80516001600160a01b03811681146200030057600080fd5b919050565b600082601f8301126200031757600080fd5b81516020620003306200032a83620002c2565b6200028f565b82815260059290921b840181019181810190868411156200035057600080fd5b8286015b848110156200036d578051835291830191830162000354565b509695505050505050565b600080600080608085870312156200038f57600080fd5b8451602080870151919550906001600160401b0380821115620003b157600080fd5b818801915088601f830112620003c657600080fd5b8151620003d76200032a82620002c2565b81815260059190911b8301840190848101908b831115620003f757600080fd5b938501935b8285101562000420576200041085620002e8565b82529385019390850190620003fc565b60408b015190985094505050808311156200043a57600080fd5b50506200044a8782880162000305565b9250506200045b60608601620002e8565b905092959194509250565b634e487b7160e01b600052603260045260246000fd5b634e487b7160e01b600052601160045260246000fd5b60008219821115620004a857620004a86200047c565b500190565b6000600019821415620004c457620004c46200047c565b5060010190565b600081518084526020808501945080840160005b83811015620005065781516001600160a01b031687529582019590820190600101620004df565b509495945050505050565b600081518084526020808501945080840160005b83811015620005065781518752958201959082019060010162000525565b85815284602082015260018060a01b038416604082015260a0606082015260006200057260a0830185620004cb565b828103608084015262000586818562000511565b98975050505050505050565b87815286602082015285604082015260e060608201526000620005b960e0830187620004cb565b8281036080840152620005cd818762000511565b60a084019590955250506001600160a01b039190911660c09091015295945050505050565b6080516135a0620006236000396000818161024e01528181610610015281816106ab0152610a6801526135a06000f3fe60806040523480156200001157600080fd5b5060043610620001145760003560e01c80638690ff9811620000a3578063c9d194d5116200006e578063c9d194d51462000270578063df97174b1462000293578063f2b5330714620002b6578063f795563714620002c057600080fd5b80638690ff981462000210578063aca6b1c11462000227578063b56561fe146200023e578063bdda81d4146200024857600080fd5b80633c3da4a311620000e45780633c3da4a3146200019f5780636941db9314620001cc57806373b2054714620001e35780637dfb6f8614620001ed57600080fd5b80629011531462000119578063010315251462000132578063011b217414620001495780630f2123571462000188575b600080fd5b620001306200012a36600462001946565b620002d7565b005b6200013062000143366004620019c7565b620002ed565b620001756200015a36600462001a2c565b6001600160a01b031660009081526004602052604090205490565b6040519081526020015b60405180910390f35b620001306200019936600462001a8e565b62000308565b600154620001b3906001600160a01b031681565b6040516001600160a01b0390911681526020016200017f565b62000130620001dd36600462001cdc565b62000542565b6200017560075481565b62000175620001fe36600462001e78565b60056020526000908152604090205481565b620001306200022136600462001ed9565b620008d7565b620001306200023836600462002012565b62000c2d565b6200017560065481565b620001757f000000000000000000000000000000000000000000000000000000000000000081565b620001756200028136600462001e78565b60009081526005602052604090205490565b62000175620002a436600462001a2c565b60046020526000908152604090205481565b6200017560035481565b62000130620002d1366004620020b8565b62000f1c565b620002e6858585858562000fd4565b5050505050565b62000303620002fc836200216e565b826200112e565b505050565b60026000541415620003375760405162461bcd60e51b81526004016200032e9062002224565b60405180910390fd5b600260009081556040516370a0823160e01b81523060048201526001600160a01b038616906370a0823190602401602060405180830381865afa15801562000383573d6000803e3d6000fd5b505050506040513d601f19601f82011682018060405250810190620003a991906200225b565b9050620003c26001600160a01b0386163330856200119a565b6040516370a0823160e01b81523060048201526000906001600160a01b038716906370a0823190602401602060405180830381865afa1580156200040a573d6000803e3d6000fd5b505050506040513d601f19601f820116820180604052508101906200043091906200225b565b905081811162000453576040516321739d9b60e01b815260040160405180910390fd5b600754620004639060016200228b565b6007556001546001600160a01b0387811691161415620004de57600254604051630852cd8d60e31b8152600481018590526001600160a01b03909116906342966c6890602401600060405180830381600087803b158015620004c457600080fd5b505af1158015620004d9573d6000803e3d6000fd5b505050505b336001600160a01b0387167f9e9794dbf94b0a0aa31a480f5b38550eda7f89115ac8fbf4953fa4dd219900c98787620005188787620022a6565b6007546040516200052d9493929190620022e9565b60405180910390a35050600160005550505050565b60026000541415620005685760405162461bcd60e51b81526004016200032e9062002224565b600260005560c08101514310620005925760405163bcf37c2560e01b815260040160405180910390fd5b61010081015160e082015160009081526005602052604090205410620005ef5761010081015160e082015160009081526005602052604090819020549051629427e960e11b8152600481019290925260248201526044016200032e565b620005fc8484846200120d565b600354620006356200060e866200216e565b7f00000000000000000000000000000000000000000000000000000000000000006200112e565b14620006545760405163723a340360e01b815260040160405180910390fd5b602081015151815151146200067c57604051634298a95160e11b815260040160405180910390fd5b80606001515181604001515114620006a757604051634829247960e01b815260040160405180910390fd5b60007f0000000000000000000000000000000000000000000000000000000000000000681b1bd9da58d0d85b1b60ba1b836000015184602001518560400151866060015187608001518860a001518960c001518a60e001518b6101000151604051602001620007219b9a99989796959493929190620023e7565b6040516020818303038152906040528051906020012090506200074c8585858463aaaaaaaa62000fd4565b5061010081015160e08201516000908152600560205260408120919091555b815151811015620007ef57620007da82608001518360000151838151811062000798576200079862002497565b602002602001015184602001518481518110620007b957620007b962002497565b60200260200101516001600160a01b0316620012669092919063ffffffff16565b80620007e681620024ad565b9150506200076b565b5060006200080682608001518360a0015162001298565b905060005b8260400151518110156200086d5762000858338460400151838151811062000837576200083762002497565b602002602001015185606001518481518110620007b957620007b962002497565b806200086481620024ad565b9150506200080b565b506007546200087e9060016200228b565b600781905560e08301516101008401516040517f7c2bb24f8e1b3725cb613d7f11ef97d9745cc97a0e40f730621c052d684077a193620008c3939291869190620024cb565b60405180910390a150506001600055505050565b60026000541415620008fd5760405162461bcd60e51b81526004016200032e9062002224565b600260009081556001600160a01b038316815260046020526040902054831162000961576001600160a01b03821660009081526004602081905260409182902054915163f7f920ad60e01b815290810185905260248101919091526044016200032e565b6001600160a01b0382166000908152600460205260409020546200098990620f42406200228b565b831115620009d1576001600160a01b03821660009081526004602081905260409182902054915163f7f920ad60e01b815290810185905260248101919091526044016200032e565b804310620009f2576040516308b9266360e11b815260040160405180910390fd5b620009ff8c8c8c6200120d565b60035462000a116200060e8e6200216e565b1462000a305760405163723a340360e01b815260040160405180910390fd5b878614158062000a405750878414155b1562000a5f5760405163c1f97e3560e01b815260040160405180910390fd5b62000ae18c8c8c7f00000000000000000000000000000000000000000000000000000000000000006f0e8e4c2dce6c2c6e8d2dedc84c2e8c6d60831b8e8e8e8e8e8e8e8e8e60405160200162000ac09b9a9998979695949392919062002574565b6040516020818303038152906040528051906020012063aaaaaaaa62000fd4565b6001600160a01b0382166000908152600460205260408120849055805b8981101562000bad5762000b6d89898381811062000b205762000b2062002497565b905060200201602081019062000b37919062001a2c565b8c8c8481811062000b4c5762000b4c62002497565b90506020020135866001600160a01b0316620012669092919063ffffffff16565b86868281811062000b825762000b8262002497565b905060200201358262000b9691906200228b565b91508062000ba481620024ad565b91505062000afe565b5062000bc46001600160a01b038416338362001266565b5060075462000bd59060016200228b565b60078190556040519081526001600160a01b0383169084907f02c7e81975f8edb86e2a0c038b7b86a49c744236abf0f6177ff5afc6986ab7089060200160405180910390a35050600160005550505050505050505050565b826040013584604001351162000c66576040805163e0e8edf360e01b81528186013560048201529084013560248201526044016200032e565b62000c796040840135620f42406200228b565b8460400135111562000cae576040805163e0e8edf360e01b81528186013560048201529084013560248201526044016200032e565b62000cbd6020850185620025f2565b905062000ccb8580620025f2565b905014158062000ce6575062000ce28480620025f2565b1590505b1562000d055760405163c01ba0ab60e01b815260040160405180910390fd5b62000d128383836200120d565b6000805b62000d256020870187620025f2565b905081101562000d8f5762000d3e6020870187620025f2565b8281811062000d515762000d5162002497565b905060200201358262000d6591906200228b565b915063aaaaaaaa82111562000d7a5762000d8f565b8062000d8681620024ad565b91505062000d16565b5063aaaaaaaa811162000dc25760405162bfb6ab60e01b81526004810182905263aaaaaaaa60248201526044016200032e565b60035462000dd46200060e866200216e565b1462000df35760405163723a340360e01b815260040160405180910390fd5b600062000e046200060e876200216e565b905062000e198585858463aaaaaaaa62000fd4565b60038190556040860135600655600062000e3a60a088016080890162001a2c565b6001600160a01b03161415801562000e555750606086013515155b1562000e885762000e8833606088013562000e7760a08a0160808b0162001a2c565b6001600160a01b0316919062001266565b60075462000e989060016200228b565b60078190556040870135907f76d08978c024a4bf8cbb30c67fd78fcaa1827cbc533e4e175f36d07e64ccf96a90606089013562000edc60a08b0160808c0162001a2c565b62000ee88b80620025f2565b62000ef760208e018e620025f2565b60405162000f0c97969594939291906200263e565b60405180910390a2505050505050565b600030868686868660405162000f3290620018d1565b62000f439695949392919062002691565b604051809103906000f08015801562000f60573d6000803e3d6000fd5b509050600754600162000f7491906200228b565b60078190556040516001600160a01b038316917f82fe3a4fa49c6382d0c085746698ddbbafe6c2bf61285b19410644b5b26287c79162000fc2918c918c918c918c918c918c918c91620026e4565b60405180910390a25050505050505050565b6000805b62000fe48780620025f2565b9050811015620010fa5785858281811062001003576200100362002497565b6200101b926020606090920201908101915062002741565b60ff1615620010e55762001080620010348880620025f2565b8381811062001047576200104762002497565b90506020020160208101906200105e919062001a2c565b8588888581811062001074576200107462002497565b905060600201620012e3565b6200109e57604051638baa579f60e01b815260040160405180910390fd5b620010ad6020880188620025f2565b82818110620010c057620010c062002497565b9050602002013582620010d491906200228b565b915082821115620010e557620010fa565b80620010f181620024ad565b91505062000fd8565b50818111620011265760405162bfb6ab60e01b815260048101829052602481018390526044016200032e565b505050505050565b6000806918da1958dadc1bda5b9d60b21b60001b90506000838286604001518760000151886020015189606001518a608001516040516020016200117997969594939291906200275f565b60408051808303601f19018152919052805160209091012095945050505050565b6040516001600160a01b0380851660248301528316604482015260648101829052620012079085906323b872dd60e01b906084015b60408051601f198184030181529190526020810180516001600160e01b03166001600160e01b03199093169290921790915262001378565b50505050565b6200121c6020840184620025f2565b90506200122a8480620025f2565b905014158062001247575080620012428480620025f2565b905014155b15620003035760405163c6617b7b60e01b815260040160405180910390fd5b6040516001600160a01b0383166024820152604481018290526200030390849063a9059cbb60e01b90606401620011cf565b6060620012dc83836040518060400160405280601e81526020017f416464726573733a206c6f772d6c6576656c2063616c6c206661696c6564000081525062001451565b9392505050565b6040517f19457468657265756d205369676e6564204d6573736167653a0a3332000000006020820152603c81018390526000908190605c0160408051601f19818403018152919052805160209182012091506200135a9082906200134a9086018662002741565b856020013586604001356200146a565b6001600160a01b0316856001600160a01b0316149150509392505050565b6000620013cf826040518060400160405280602081526020017f5361666545524332303a206c6f772d6c6576656c2063616c6c206661696c6564815250856001600160a01b0316620014519092919063ffffffff16565b805190915015620003035780806020019051810190620013f09190620027bf565b620003035760405162461bcd60e51b815260206004820152602a60248201527f5361666545524332303a204552433230206f7065726174696f6e20646964206e6044820152691bdd081cdd58d8d9595960b21b60648201526084016200032e565b606062001462848460008562001496565b949350505050565b60008060006200147d87878787620015c8565b915091506200148c81620016bd565b5095945050505050565b606082471015620014f95760405162461bcd60e51b815260206004820152602660248201527f416464726573733a20696e73756666696369656e742062616c616e636520666f6044820152651c8818d85b1b60d21b60648201526084016200032e565b843b620015495760405162461bcd60e51b815260206004820152601d60248201527f416464726573733a2063616c6c20746f206e6f6e2d636f6e747261637400000060448201526064016200032e565b600080866001600160a01b03168587604051620015679190620027e3565b60006040518083038185875af1925050503d8060008114620015a6576040519150601f19603f3d011682016040523d82523d6000602084013e620015ab565b606091505b5091509150620015bd82828662001893565b979650505050505050565b6000807f7fffffffffffffffffffffffffffffff5d576e7357a4501ddfe92f46681b20a0831115620016015750600090506003620016b4565b8460ff16601b141580156200161a57508460ff16601c14155b156200162d5750600090506004620016b4565b6040805160008082526020820180845289905260ff881692820192909252606081018690526080810185905260019060a0016020604051602081039080840390855afa15801562001682573d6000803e3d6000fd5b5050604051601f1901519150506001600160a01b038116620016ad57600060019250925050620016b4565b9150600090505b94509492505050565b6000816004811115620016d457620016d462002801565b1415620016de5750565b6001816004811115620016f557620016f562002801565b1415620017455760405162461bcd60e51b815260206004820152601860248201527f45434453413a20696e76616c6964207369676e6174757265000000000000000060448201526064016200032e565b60028160048111156200175c576200175c62002801565b1415620017ac5760405162461bcd60e51b815260206004820152601f60248201527f45434453413a20696e76616c6964207369676e6174757265206c656e6774680060448201526064016200032e565b6003816004811115620017c357620017c362002801565b14156200181e5760405162461bcd60e51b815260206004820152602260248201527f45434453413a20696e76616c6964207369676e6174757265202773272076616c604482015261756560f01b60648201526084016200032e565b600481600481111562001835576200183562002801565b1415620018905760405162461bcd60e51b815260206004820152602260248201527f45434453413a20696e76616c6964207369676e6174757265202776272076616c604482015261756560f01b60648201526084016200032e565b50565b60608315620018a4575081620012dc565b825115620018b55782518084602001fd5b8160405162461bcd60e51b81526004016200032e919062002817565b610d3e806200282d83390190565b600060a08284031215620018f257600080fd5b50919050565b60008083601f8401126200190b57600080fd5b5081356001600160401b038111156200192357600080fd5b6020830191508360206060830285010111156200193f57600080fd5b9250929050565b6000806000806000608086880312156200195f57600080fd5b85356001600160401b03808211156200197757600080fd5b6200198589838a01620018df565b965060208801359150808211156200199c57600080fd5b50620019ab88828901620018f8565b9699909850959660408101359660609091013595509350505050565b60008060408385031215620019db57600080fd5b82356001600160401b03811115620019f257600080fd5b62001a0085828601620018df565b95602094909401359450505050565b80356001600160a01b038116811462001a2757600080fd5b919050565b60006020828403121562001a3f57600080fd5b620012dc8262001a0f565b60008083601f84011262001a5d57600080fd5b5081356001600160401b0381111562001a7557600080fd5b6020830191508360208285010111156200193f57600080fd5b6000806000806060858703121562001aa557600080fd5b62001ab08562001a0f565b935060208501356001600160401b0381111562001acc57600080fd5b62001ada8782880162001a4a565b9598909750949560400135949350505050565b634e487b7160e01b600052604160045260246000fd5b60405161012081016001600160401b038111828210171562001b295762001b2962001aed565b60405290565b604051601f8201601f191681016001600160401b038111828210171562001b5a5762001b5a62001aed565b604052919050565b60006001600160401b0382111562001b7e5762001b7e62001aed565b5060051b60200190565b600082601f83011262001b9a57600080fd5b8135602062001bb362001bad8362001b62565b62001b2f565b82815260059290921b8401810191818101908684111562001bd357600080fd5b8286015b8481101562001bf0578035835291830191830162001bd7565b509695505050505050565b600082601f83011262001c0d57600080fd5b8135602062001c2062001bad8362001b62565b82815260059290921b8401810191818101908684111562001c4057600080fd5b8286015b8481101562001bf05762001c588162001a0f565b835291830191830162001c44565b600082601f83011262001c7857600080fd5b81356001600160401b0381111562001c945762001c9462001aed565b62001ca9601f8201601f191660200162001b2f565b81815284602083860101111562001cbf57600080fd5b816020850160208301376000918101602001919091529392505050565b6000806000806060858703121562001cf357600080fd5b84356001600160401b038082111562001d0b57600080fd5b62001d1988838901620018df565b9550602087013591508082111562001d3057600080fd5b62001d3e88838901620018f8565b9095509350604087013591508082111562001d5857600080fd5b90860190610120828903121562001d6e57600080fd5b62001d7862001b03565b82358281111562001d8857600080fd5b62001d968a82860162001b88565b82525060208301358281111562001dac57600080fd5b62001dba8a82860162001bfb565b60208301525060408301358281111562001dd357600080fd5b62001de18a82860162001b88565b60408301525060608301358281111562001dfa57600080fd5b62001e088a82860162001bfb565b60608301525062001e1c6080840162001a0f565b608082015260a08301358281111562001e3457600080fd5b62001e428a82860162001c66565b60a08301525060c083013560c082015260e083013560e08201526101009150818301358282015280935050505092959194509250565b60006020828403121562001e8b57600080fd5b5035919050565b60008083601f84011262001ea557600080fd5b5081356001600160401b0381111562001ebd57600080fd5b6020830191508360208260051b85010111156200193f57600080fd5b6000806000806000806000806000806000806101008d8f03121562001efd57600080fd5b6001600160401b038d35111562001f1357600080fd5b62001f228e8e358f01620018df565b9b506001600160401b0360208e0135111562001f3d57600080fd5b62001f4f8e60208f01358f01620018f8565b909b5099506001600160401b0360408e0135111562001f6d57600080fd5b62001f7f8e60408f01358f0162001e92565b90995097506001600160401b0360608e0135111562001f9d57600080fd5b62001faf8e60608f01358f0162001e92565b90975095506001600160401b0360808e0135111562001fcd57600080fd5b62001fdf8e60808f01358f0162001e92565b909550935060a08d0135925062001ff960c08e0162001a0f565b915060e08d013590509295989b509295989b509295989b565b600080600080606085870312156200202957600080fd5b84356001600160401b03808211156200204157600080fd5b6200204f88838901620018df565b955060208701359150808211156200206657600080fd5b6200207488838901620018df565b945060408701359150808211156200208b57600080fd5b506200209a87828801620018f8565b95989497509550505050565b803560ff8116811462001a2757600080fd5b60008060008060008060006080888a031215620020d457600080fd5b87356001600160401b0380821115620020ec57600080fd5b620020fa8b838c0162001a4a565b909950975060208a01359150808211156200211457600080fd5b620021228b838c0162001a4a565b909750955060408a01359150808211156200213c57600080fd5b506200214b8a828b0162001a4a565b909450925062002160905060608901620020a6565b905092959891949750929550565b600060a082360312156200218157600080fd5b60405160a081016001600160401b038282108183111715620021a757620021a762001aed565b816040528435915080821115620021bd57600080fd5b620021cb3683870162001bfb565b83526020850135915080821115620021e257600080fd5b50620021f13682860162001b88565b6020830152506040830135604082015260608301356060820152620022196080840162001a0f565b608082015292915050565b6020808252601f908201527f5265656e7472616e637947756172643a207265656e7472616e742063616c6c00604082015260600190565b6000602082840312156200226e57600080fd5b5051919050565b634e487b7160e01b600052601160045260246000fd5b60008219821115620022a157620022a162002275565b500190565b600082821015620022bb57620022bb62002275565b500390565b81835281816020850137506000828201602090810191909152601f909101601f19169091010190565b606081526000620022ff606083018688620022c0565b6020830194909452506040015292915050565b600081518084526020808501945080840160005b83811015620023445781518752958201959082019060010162002326565b509495945050505050565b600081518084526020808501945080840160005b83811015620023445781516001600160a01b03168752958201959082019060010162002363565b60005b83811015620023a75781810151838201526020016200238d565b83811115620012075750506000910152565b60008151808452620023d38160208601602086016200238a565b601f01601f19169290920160200192915050565b60006101608d83528c6020840152806040840152620024098184018d62002312565b905082810360608401526200241f818c6200234f565b9050828103608084015262002435818b62002312565b905082810360a08401526200244b818a6200234f565b6001600160a01b03891660c085015283810360e08501529050620024708188620023b9565b61010084019690965250506101208101929092526101409091015298975050505050505050565b634e487b7160e01b600052603260045260246000fd5b6000600019821415620024c457620024c462002275565b5060010190565b848152836020820152608060408201526000620024ec6080830185620023b9565b905082606083015295945050505050565b81835260006001600160fb1b038311156200251757600080fd5b8260051b8083602087013760009401602001938452509192915050565b8183526000602080850194508260005b8581101562002344576001600160a01b03620025608362001a0f565b168752958201959082019060010162002544565b60006101008d83528c6020840152806040840152620025978184018c8e620024fd565b90508281036060840152620025ae818a8c62002534565b90508281036080840152620025c581888a620024fd565b60a084019690965250506001600160a01b039290921660c083015260e09091015298975050505050505050565b6000808335601e198436030181126200260a57600080fd5b8301803591506001600160401b038211156200262557600080fd5b6020019150600581901b36038213156200193f57600080fd5b87815286602082015260018060a01b038616604082015260a0606082015260006200266e60a08301868862002534565b828103608084015262002683818587620024fd565b9a9950505050505050505050565b6001600160a01b0387168152608060208201819052600090620026b89083018789620022c0565b8281036040840152620026cd818688620022c0565b91505060ff83166060830152979650505050505050565b60a081526000620026fa60a083018a8c620022c0565b82810360208401526200270f81898b620022c0565b9050828103604084015262002726818789620022c0565b60ff9590951660608401525050608001529695505050505050565b6000602082840312156200275457600080fd5b620012dc82620020a6565b87815286602082015285604082015260e0606082015260006200278660e08301876200234f565b82810360808401526200279a818762002312565b60a084019590955250506001600160a01b039190911660c09091015295945050505050565b600060208284031215620027d257600080fd5b81518015158114620012dc57600080fd5b60008251620027f78184602087016200238a565b9190910192915050565b634e487b7160e01b600052602160045260246000fd5b602081526000620012dc6020830184620023b956fe60806040526000196005553480156200001757600080fd5b5060405162000d3e38038062000d3e8339810160408190526200003a9162000307565b8251839083906200005390600390602085019062000194565b5080516200006990600490602084019062000194565b5050600680546001600160a01b038716610100026001600160a81b031990911660ff85161717905550600554620000a2908590620000ac565b505050506200040f565b6001600160a01b038216620001075760405162461bcd60e51b815260206004820152601f60248201527f45524332303a206d696e7420746f20746865207a65726f206164647265737300604482015260640160405180910390fd5b80600260008282546200011b9190620003ab565b90915550506001600160a01b038216600090815260208190526040812080548392906200014a908490620003ab565b90915550506040518181526001600160a01b038316906000907fddf252ad1be2c89b69c2b068fc378daa952ba7f163c4a11628f55a4df523b3ef9060200160405180910390a35050565b828054620001a290620003d2565b90600052602060002090601f016020900481019282620001c6576000855562000211565b82601f10620001e157805160ff191683800117855562000211565b8280016001018555821562000211579182015b8281111562000211578251825591602001919060010190620001f4565b506200021f92915062000223565b5090565b5b808211156200021f576000815560010162000224565b634e487b7160e01b600052604160045260246000fd5b600082601f8301126200026257600080fd5b81516001600160401b03808211156200027f576200027f6200023a565b604051601f8301601f19908116603f01168101908282118183101715620002aa57620002aa6200023a565b81604052838152602092508683858801011115620002c757600080fd5b600091505b83821015620002eb5785820183015181830184015290820190620002cc565b83821115620002fd5760008385830101525b9695505050505050565b600080600080608085870312156200031e57600080fd5b84516001600160a01b03811681146200033657600080fd5b60208601519094506001600160401b03808211156200035457600080fd5b620003628883890162000250565b945060408701519150808211156200037957600080fd5b50620003888782880162000250565b925050606085015160ff81168114620003a057600080fd5b939692955090935050565b60008219821115620003cd57634e487b7160e01b600052601160045260246000fd5b500190565b600181811c90821680620003e757607f821691505b602082108114156200040957634e487b7160e01b600052602260045260246000fd5b50919050565b61091f806200041f6000396000f3fe608060405234801561001057600080fd5b50600436106100a95760003560e01c80633950935111610071578063395093511461012d57806370a082311461014057806395d89b4114610169578063a457c2d714610171578063a9059cbb14610184578063dd62ed3e1461019757600080fd5b806306fdde03146100ae578063095ea7b3146100cc57806318160ddd146100ef57806323b872dd14610105578063313ce56714610118575b600080fd5b6100b66101d0565b6040516100c3919061073d565b60405180910390f35b6100df6100da3660046107ae565b610262565b60405190151581526020016100c3565b6100f7610278565b6040519081526020016100c3565b6100df6101133660046107d8565b6102aa565b60065460405160ff90911681526020016100c3565b6100df61013b3660046107ae565b610359565b6100f761014e366004610814565b6001600160a01b031660009081526020819052604090205490565b6100b6610395565b6100df61017f3660046107ae565b6103a4565b6100df6101923660046107ae565b61043d565b6100f76101a5366004610836565b6001600160a01b03918216600090815260016020908152604080832093909416825291909152205490565b6060600380546101df90610869565b80601f016020809104026020016040519081016040528092919081815260200182805461020b90610869565b80156102585780601f1061022d57610100808354040283529160200191610258565b820191906000526020600020905b81548152906001019060200180831161023b57829003601f168201915b5050505050905090565b600061026f33848461044a565b50600192915050565b60065461010090046001600160a01b03166000908152602081905260408120546005546102a591906108ba565b905090565b60006102b784848461056e565b6001600160a01b0384166000908152600160209081526040808320338452909152902054828110156103415760405162461bcd60e51b815260206004820152602860248201527f45524332303a207472616e7366657220616d6f756e74206578636565647320616044820152676c6c6f77616e636560c01b60648201526084015b60405180910390fd5b61034e853385840361044a565b506001949350505050565b3360008181526001602090815260408083206001600160a01b0387168452909152812054909161026f9185906103909086906108d1565b61044a565b6060600480546101df90610869565b3360009081526001602090815260408083206001600160a01b0386168452909152812054828110156104265760405162461bcd60e51b815260206004820152602560248201527f45524332303a2064656372656173656420616c6c6f77616e63652062656c6f77604482015264207a65726f60d81b6064820152608401610338565b610433338585840361044a565b5060019392505050565b600061026f33848461056e565b6001600160a01b0383166104ac5760405162461bcd60e51b8152602060048201526024808201527f45524332303a20617070726f76652066726f6d20746865207a65726f206164646044820152637265737360e01b6064820152608401610338565b6001600160a01b03821661050d5760405162461bcd60e51b815260206004820152602260248201527f45524332303a20617070726f766520746f20746865207a65726f206164647265604482015261737360f01b6064820152608401610338565b6001600160a01b0383811660008181526001602090815260408083209487168084529482529182902085905590518481527f8c5be1e5ebec7d5bd14f71427d1e84f3dd0314c0f7b2291e5b200ac8c7c3b925910160405180910390a3505050565b6001600160a01b0383166105d25760405162461bcd60e51b815260206004820152602560248201527f45524332303a207472616e736665722066726f6d20746865207a65726f206164604482015264647265737360d81b6064820152608401610338565b6001600160a01b0382166106345760405162461bcd60e51b815260206004820152602360248201527f45524332303a207472616e7366657220746f20746865207a65726f206164647260448201526265737360e81b6064820152608401610338565b6001600160a01b038316600090815260208190526040902054818110156106ac5760405162461bcd60e51b815260206004820152602660248201527f45524332303a207472616e7366657220616d6f756e7420657863656564732062604482015265616c616e636560d01b6064820152608401610338565b6001600160a01b038085166000908152602081905260408082208585039055918516815290812080548492906106e39084906108d1565b92505081905550826001600160a01b0316846001600160a01b03167fddf252ad1be2c89b69c2b068fc378daa952ba7f163c4a11628f55a4df523b3ef8460405161072f91815260200190565b60405180910390a350505050565b600060208083528351808285015260005b8181101561076a5785810183015185820160400152820161074e565b8181111561077c576000604083870101525b50601f01601f1916929092016040019392505050565b80356001600160a01b03811681146107a957600080fd5b919050565b600080604083850312156107c157600080fd5b6107ca83610792565b946020939093013593505050565b6000806000606084860312156107ed57600080fd5b6107f684610792565b925061080460208501610792565b9150604084013590509250925092565b60006020828403121561082657600080fd5b61082f82610792565b9392505050565b6000806040838503121561084957600080fd5b61085283610792565b915061086060208401610792565b90509250929050565b600181811c9082168061087d57607f821691505b6020821081141561089e57634e487b7160e01b600052602260045260246000fd5b50919050565b634e487b7160e01b600052601160045260246000fd5b6000828210156108cc576108cc6108a4565b500390565b600082198211156108e4576108e46108a4565b50019056fea264697066735822122030a282fb7e0b734096beb9323062edce33d11c6ccd7166512f1150282b9d8c8a64736f6c634300080a0033a26469706673582212209bf0132c93cf9c696002c9177220aac3b8d0ef9859d81441fa9577ad02c68a2464736f6c634300080a0033",
  "linkReferences": {},
  "deployedLinkReferences": {}
}